:020000040800F2
:10000000C009002025040008A5260008A72600082E
:10001000AB260008AF260008B32600080000000049
:10002000000000000000000000000000B7260008EB
:10003000B926000800000000BB260008BD26000805
:100040003F0400083F0400083F0400083F04000884
:100050003F0400083F040008FB0D00083F040008AF
:10006000C90D00083F0400083F0400083F040008D1
:100070003F0400083F0400083F0400083F04000854
:100080003F0400083F0400083F0400083F04000844
:100090003F0400083F0400083F0400083F04000834
:1000A0003F0400083F0400083F0400083F04000824
:1000B0003F04000839100008391400083F04000804
:1000C0003F0400083F0400083F0400083F04000804
:1000D0003F0400083F0400083F0400083F040008F4
:1000E0007B1600083F0400083F0400083F04000896
:1000F0003F0400083F0400083F0400083F040008D4
:100100003F0400083F0400083F0400083F040008C3
:100110003F0400083F0400083F0400083F040008B3
:100120003F0400083F0400083F0400083F040008A3
:1001300000F002F800F05CF80AA090E8000C82449D
:100140008344AAF10107DA4501D100F051F8AFF27A
:10015000090EBAE80F0013F0010F18BFFB1A43F0A5
:1001600001031847A4380000C43800000A444FF0C7
:10017000000C10F8013B13F0070408BF10F8014B06
:100180001D1108BF10F8015B641E05D010F8016B4B
:10019000641E01F8016BF9D113F0080F1EBF10F8AF
:1001A000014BAD1C0C1B09D16D1E58BF01F801CBD2
:1001B000FAD505E014F8016B01F8016B6D1EF9D555
:1001C0009142D6D37047000000230024002500266A
:1001D000103A28BF78C1FBD8520728BF30C148BFAA
:1001E0000B6070471FB502F08EFA1FBD10B510BD31
:1001F00002F095FA1146FFF7F5FF01F005FE02F057
:10020000B3FA03B4FFF7F2FF03BC02F0B9FA00003F
:100210000B49D1F800C04A685CF8043B10681844E8
:1002200042F8040B8C4528BFA1F1DC0C8A4228BFA0
:10023000A1F1DC02C1F800C04A6020F00040704724
:10024000540300200CB50020019000906C48006819
:1002500040F480306A49086000BF6948006800F4D3
:10026000003000900198401C0190009818B9019846
:10027000B0F5A06FF1D16248006800F4003010B111
:100280000120009001E0002000900098012843D157
:100290005C48006840F010005A4908600846006851
:1002A00020F0030008600846006840F00200086083
:1002B00053484068524948600846406848600846CC
:1002C000406840F4806048600846406820F47C1034
:1002D00048600846406840F4E810486008460068F6
:1002E00040F08070086000BF4548006800F0007072
:1002F0000028F9D04248406820F003004049486097
:100300000846406840F00200486000BF3C48406832
:1003100000F00C000828F9D10CBD10B5FFF792FFD2
:1003200010BD10B53648006840F00100344908603F
:10033000084640683449084031494860084600682A
:10034000324908402E4908600846006820F48020A1
:1003500008600846406820F4FE0048604FF41F0023
:100360008860FFF7DAFF4FF000602949086010BD90
:1003700010B5002100200022214B5B6803F00C0126
:1003800021B1042906D0082928D107E0214B224CAD
:10039000236027E01F4B204C236023E0184B5B6851
:1003A00003F47010164B5B6803F48032022303EBF6
:1003B000904022B9194B4343174C23600DE0104B7A
:1003C0005B6803F4003323B1144B4343124C2360A6
:1003D00003E0104B4343104C236003E00D4B0E4CE5
:1003E000236000BF00BF064B5B68C3F303130C4CD4
:1003F000E15C094B1B68CB40074C236010BD00003B
:1004000000100240002002400000FFF8FFFFF6FE4F
:1004100008ED00E000127A000000002000093D0015
:10042000040000200948804709480047FEE7FEE72E
:10043000FEE7FEE7FEE7FEE7FEE7FEE7FEE7FEE794
:1004400004480549054A064B70470000230300088D
:1004500031010008C0030020C0090020C0050020B1
:10046000C0050020F94908807047F849891C0880B8
:10047000704700B50120FFF7F5FF1120FFF7F2FFED
:100480003A20FFF7EFFF5520FFF7EFFF2920FFF796
:10049000E9FF3620FFF7E6FFCA20FFF7E6FF00BDC1
:1004A00000B5EB48406940F48070E949486108466E
:1004B000806940F0080088610846806940F02000AB
:1004C00088610846806940F040008861084680697C
:1004D00040F480708861DF48006820F00F00DD493B
:1004E00008600846006840F003000860DA480068C9
:1004F000DA490840D849086008460068D8490843E6
:10050000D5490860081F006800F0FF20091F086037
:100510000846006840F0BB100860D2480068002020
:10052000D04908600846006840F0BB300860081FEA
:10053000006820F07040091F08600846006840F01D
:1005400030400860C848406820F47020C6494860C0
:100550000846406840F4302048600846006820F0B3
:100560000F0008600846006840F00B00086000209B
:100570004FF020418861C861BC4908604FF02040BD
:10058000806940F480504FF02041886108468069BE
:1005900040F4804088610846806940F0100088611E
:1005A0000846C069C8610846C06940F00100C861DA
:1005B0000846C06940F47060C861AC480068C1F882
:1005C0001C01AA480068C1F81C010846D0F81C01AB
:1005D00040F44070C1F81C010846806940F00100F9
:1005E0008861FFF746FF9B481030006840F001002B
:1005F00098491031086000BD10B503460C462A200A
:10060000FFF730FF1812FFF730FFD8B2FFF72DFFCA
:100610000120FFF72AFF3F20FFF727FF2B20FFF7DE
:1006200021FF2012FFF721FFE0B2FFF71EFF01209C
:10063000FFF71BFFDF20FFF718FF2C20FFF712FF4B
:100640001046FFF712FF10BDF0B507460C46059D9A
:1006500000262A20FFF706FF2012FFF706FFE0B270
:10066000FFF703FF1119491EC1F30F20FFF7FDFE2D
:100670001119491EC8B2FFF7F8FE2B20FFF7F2FE52
:100680001812FFF7F2FED8B2FFF7EFFEE918491E85
:10069000C1F30F20FFF7E9FEE918491EC8B2FFF7C2
:1006A000E4FE2C20FFF7DEFE00BF03E03846FFF734
:1006B000DCFE761C02FB05F0B042F7D8F0BD2DE958
:1006C000F04F04460D4616469A46DDF82490102257
:1006D0004FF0080B202E01DB7F2E01DDBDE8F08FEF
:1006E000A6F12000C6B22A20FFF7BCFE2012FFF7B9
:1006F000BCFEE0B2FFF7B9FE0BEB0401491EC1F3EB
:100700000F20FFF7B2FE0BEB0401491EC8B2FFF742
:10071000ACFE2B20FFF7A6FE2812FFF7A6FEE8B2DC
:10072000FFF7A3FE5119491EC1F30F20FFF79DFEED
:100730005119491EC8B2FFF798FE2C20FFF792FE10
:10074000002327E04FF000081DE0002715E048488F
:1007500000EB0610012101EB4701C91A405C40FA89
:1007600008F000F0010018B15046FFF77EFE02E0ED
:100770004846FFF77AFE781CC7B25F45E7DB08F111
:10078000010000F0FF0802EBD271B8EB610FDCDB77
:10079000581CC3B2D11702EB5171B3EBE10FD1DB9F
:1007A00000BF9BE72DE9F04F04460D4617469A46D9
:1007B000DDF82490102293460A2F01DBBDE8F08F6C
:1007C0002A20FFF74FFE2012FFF74FFEE0B2FFF79F
:1007D0004CFE0BEB0401491EC1F30F20FFF745FE51
:1007E0000BEB0401491EC8B2FFF73FFE2B20FFF7B9
:1007F00039FE2812FFF739FEE8B2FFF736FE51192D
:10080000491EC1F30F20FFF730FE5119491EC8B22F
:10081000FFF72BFE2C20FFF725FE00233EE04FF0D4
:10082000000834E000262CE0124800EB47100121BC
:1008300001EB4601C91A405C40FA08F000F00100E3
:10084000D0B15046FFF711FE19E00000FE07006C22
:1008500000100240000C01400414014000F0FF00B1
:10086000BB0B00BB04180140002001401C0100A08C
:100870008C2700087C2D00084846FFF7F6FD701C09
:10088000C6B25E45D0DB08F1010000F0FF0802EBC4
:10089000D271B8EB610FC5DB581CC3B2D11702EBA4
:1008A0005171B3EBE10FBADB00BF87E72DE9FF41E0
:1008B00080460C4615461F46A5A207CA01AB07C3D2
:1008C00001A8C65D06F0800058B10A20009005F12D
:1008D000820083B204F10A0081B237224046FFF75A
:1008E000B3FE06F0400058B13720009005F14B00F0
:1008F00083B204F1410081B20A224046FFF7A4FE10
:1009000006F0200058B13720009005F10A0083B2AC
:1009100004F1410081B20A224046FFF795FE06F03D
:10092000100048B10A20ABB2009004F10A0081B275
:1009300037224046FFF788FE06F0080048B137200E
:10094000009005F10A0083B2A1B20A224046FFF7E7
:100950007BFE06F0040048B13720009005F14B0003
:1009600083B2A1B20A224046FFF76EFE06F00200F3
:1009700058B10A20009005F1410083B204F10A0049
:1009800081B237224046FFF75FFEBDE8FF81FEB52A
:10099000724AD2E900109268CDE9010200910A245E
:1009A00016E00A250FE00A2094FBF0F0461E3DF801
:1009B000162021462846FFF71FFE42F2107000F075
:1009C00069F9681C85B21E2DEDDB04F10A0084B2C2
:1009D000322CE6DDFEBD2DE9F8434FF6F0746425B8
:1009E00064266427A84633463A4629462046CDF871
:1009F0000080FFF729FE42F2107000F04BF9BDE8CD
:100A0000F88338B50A2416E02346502211464FF4E5
:100A10007F40FFF74BFF524800F03CF94FF4A070C5
:100A20000023F022194600901846FFF70DFE04B986
:100A30000A24601EC4B2002CE6DA38BD38B503249F
:100A400017E02346502211464FF47F40FFF72EFF58
:100A5000434800F01FF94FF4A0700023F02219461C
:100A600000901846FFF7F0FD012C00D103E0601E56
:100A7000C4B2012CE5DA00BF38BD10B588B039A288
:100A800007CA05AB07C33AA207CA02AB07C30024D3
:100A90001EE04FF4FC6005A900900A5D402101EBC7
:100AA000C40188B200235021FFF709FE4FF4FC6017
:100AB00002A900900A5D402101EBC40188B2002325
:100AC0006021FFF7FCFD2D4800F0E4F8601C84B2C3
:100AD0000A2CDEDB08B010BD08B54FF478400023C7
:100AE0001A46902100904020FFF75CFE4FF47840BA
:100AF00000230122902100905020FFF753FE4FF475
:100B0000784000230222902100906020FFF74AFEE7
:100B10004FF4784000230322802100904020FFF70B
:100B200041FE4FF4784000230422802100905020A1
:100B3000FFF738FE4FF47840002305228021009013
:100B40006020FFF72FFE0E4800F0A4F808BD00005B
:100B5000FC60DAF266B6BEE0FEF60000FC39000882
:100B600080969800313135353132353932330000D5
:100B7000313135353132363837350000F049020031
:100B8000A08601000748006820F00F0005490860B2
:100B90000846006840F003000860881501491031DC
:100BA00008607047040C01400F48006820F4700092
:100BB0000D4908600846006840F440100860202095
:100BC0000949103108600948006820F4700007499D
:100BD00008600846006840F440100860202003497F
:100BE000103108607047000000180140000C0140FF
:100BF00007210020234A5268234B1A40214B5A6098
:100C00001A461268214B1A401E4B1A601A46126887
:100C100042F480321A6000BF1A4A1268520C002A4D
:100C2000FAD04FF48062174B5A601A46526842EA73
:100C300081425A601A46526842F480325A60144A1D
:100C4000126842F03202124B1A600E4A126842F0E9
:100C500080720C4B1A6000BF0A4A1268520E002ABA
:100C6000FAD0084A526842F00202064B5A6005E088
:100C7000044A5268C2F3870000F003000228F7D14B
:100C800070470000001002400000FFF8FFFFF6FE72
:100C900000200240002100E0491C8142FCD3704743
:100CA000D648806940F04000D4498861D448006843
:100CB00020F47060D24908600846006840F4006083
:100CC0000860CF480C30006840F00400CC490C317B
:100CD0000860CA48806940F00100C8498861C94875
:100CE000806820F47060C74988600846806840F4D6
:100CF00080608860C448006840F00400C249086011
:100D0000C1480C30006840F00400BF490C31086055
:100D10006521BE480170BE48006840F480704FF005
:100D2000E021C1F800017047B448806940F0040038
:100D3000B2498861B748006820F00F00B5490860E3
:100D40000846006840F008000860B2480C300068AF
:100D5000B0490C310860A948806940F00100A749FA
:100D60008861A848806820F00F00A649886008467E
:100D700080688860A448006840F00100A2490860CB
:100D8000A1480C30006840F001009F490C31086018
:100D900075219E48801E01709D48006840F040000B
:100DA0004FF0E021C1F800017047014601F0070251
:100DB0001202994B18684FF6FF031840974B1843DF
:100DC0001043954B1860704710B500240EE02020AA
:100DD000934908609348FFF75DFF20209049091F61
:100DE00008609048FFF756FF601CC4B20A2CEEDB87
:100DF000042085491431086010BD10B500240FE0AF
:100E000020207F49143108608648FFF743FF2020E7
:100E10007B49103108608348FFF73CFF601CC4B277
:100E20000A2CEDDB012078491431086010BD7348AD
:100E3000806940F01000714988617B48406820F467
:100E40007F40794948600846406840F4084048605F
:100E50000846C06840F40060C8606848806940F097
:100E60000100664988616748006920F4704165485F
:100E70000161006940F40051624801616248006804
:100E800040F40060604908605F480C30006840F43E
:100E900000605D490C31086075215C4820300170AC
:100EA0005B48001D006840F480704FF0E021C1F8FD
:100EB00004017047514AD26942F002024F4BDA6195
:100EC0005A4A1080121F1180584A203A128842F064
:100ED0000102564B203B1A80544A2C3A128842F0A9
:100EE0000102524B2C3B1A804523484A153213709D
:100EF000474A126842F000524FF0E023C3F8002145
:100F000070473E4AD26942F004023C4BDA61484ADB
:100F10001080121F11800122454B203B1A80444A49
:100F20002C3A128842F00102414B2C3B1A80452397
:100F3000364A16321370364A126842F080424FF039
:100F4000E023C3F80021704700204FF0E021086142
:100F5000384848610846006940F00300086170475E
:100F6000264A926942F00802244B9A612C4A143AAC
:100F7000126822F470022A4B143B1A601A46126857
:100F800042F430021A601D4A926942F001021B4B82
:100F90009A611C4A526822F440621A4B5A601A46FF
:100FA000526842F400625A60144AD26942F0020266
:100FB000124BDA611D4A1080121F11801B4A143A2D
:100FC000128842F4E042194B143B1A801A461288E8
:100FD00042F400621A80154A0C3A128842F010025C
:100FE000124B0C3B1A808022104B2C3B1A801A4665
:100FF000128842F001021A8070470000001002407F
:1010000000180140000001400004014008E400E035
:1010100000E100E0000801400CED00E00000FA05EE
:10102000140C014040420F00001001402C0400400D
:101030002C0800408F5F010008B5F948008800F0D7
:10104000010000287ED0F7480068401CF549086080
:101050000846006848B900204FF6FF7330224FF46D
:1010600072610090D820FFF72AFB00204FF6FF7333
:1010700036224FF472610090D020FFF720FBE94840
:101080000068142190FBF1F201FB1200012804D149
:10109000E5480078401EE4490870E24800681421E1
:1010A00090FBF1F201FB1200012807D0DD48006837
:1010B00090FBF1F201FB1200022814D100204FF640
:1010C000FF7339224FF472610090D820FFF7F7FACE
:1010D00000200090D44802784FF6FF734FF47261FD
:1010E000D020FFF7ECFACF480068142190FBF1F212
:1010F00001FB1200032807D0CA48006890FBF1F2F8
:1011000001FB1200042814D100204FF6FF7338228F
:101110004FF472610090D820FFF7D1FA00200090C0
:10112000C14802784FF6FF734FF47261D020FFF789
:10113000C6FABC480068142190FBF1F201FB1200D2
:10114000052800E065E107D0B648006890FBF1F2A1
:1011500001FB1200062814D100204FF6FF7337223E
:101160004FF472610090D820FFF7A9FA0020009098
:10117000AD4802784FF6FF734FF47261D020FFF74D
:101180009EFAA8480068142190FBF1F201FB1200BE
:10119000072807D0A348006890FBF1F201FB12007A
:1011A000082814D100204FF6FF7336224FF47261E5
:1011B0000090D820FFF783FA002000909A48027828
:1011C0004FF6FF734FF47261D020FFF778FA95481D
:1011D0000068142190FBF1F201FB1200092807D0EE
:1011E0009048006890FBF1F201FB12000A2814D12C
:1011F00000204FF6FF7335224FF472610090D82023
:10120000FFF75DFA00200090874802784FF6FF73E1
:101210004FF47261D020FFF752FA8248006814211F
:1012200090FBF1F201FB12000B2807D07D4800680B
:1012300090FBF1F201FB12000C2814D100204FF6B4
:10124000FF7334224FF472610090D820FFF737FA11
:1012500000200090744802784FF6FF734FF47261DB
:10126000D020FFF72CFA6F480068142190FBF1F2B0
:1012700001FB12000D2807D06A48006890FBF1F2CC
:1012800001FB12000E2814D100204FF6FF73332209
:101290004FF472610090D820FFF711FA00200090FF
:1012A000614802784FF6FF734FF47261D020FFF768
:1012B00006FA5C480068142190FBF1F201FB120071
:1012C0000F2807D05748006890FBF1F201FB12008D
:1012D000102814D100204FF6FF7332224FF47261B0
:1012E0000090D820FFF7EBF9002000904E480278DC
:1012F0004FF6FF734FF47261D020FFF7E0F94948D1
:101300000068142190FBF1F201FB1200112807D0B4
:101310004448006890FBF1F201FB1200122814D13E
:1013200000204FF6FF7331224FF472610090D820F5
:10133000FFF7C5F9002000903B4802784FF6FF7395
:101340004FF47261D020FFF7BAF9364800681421D3
:1013500090FBF1F201FB1200132806D0314800681F
:1013600090FBF1F201FB1200A0B900204FF6FF73D1
:1013700030224FF472610090D820FFF7A0F90020CE
:101380000090294802784FF6FF734FF47261D02025
:10139000FFF795F92348006878283ADD00204FF6DA
:1013A000FF7330224FF472610090D820FFF787F965
:1013B00000204FF6FF7330224FF472610090D0206E
:1013C000FFF77DF90020194908801BE04FF47040B9
:1013D0001749164B00901B88CA5C144909881A23C8
:1013E00003EBC10188B24FF6F0734FF47061FFF761
:1013F00066F94FF480700F4908600C480088401C63
:101400000A490880094800880A28DFDB3620064997
:1014100008700348008820F001000149088008BDD9
:1014200010040040680200206C02002034000020FC
:10143000F2000020100C014008B5F848008800F0C8
:101440000100002872D0F6480068401CF44908608A
:10145000F448006880B9084600683C280CDC4FF668
:10146000F070FF230622202100900846FFF79AF92A
:101470000120ED49086008E037200A23024619469A
:101480000090EA480088FFF7DFF8E6480068012886
:1014900010D1E34800683C280CDC4FF6F070FF23C5
:1014A0000622202100907620FFF77CF90220DE49F9
:1014B000086008E037200A23024660210090DB48DC
:1014C0000088FFF7C1F8D7480068022810D1D44837
:1014D00000683C280CDC4FF6F070FF230622202128
:1014E0000090CA20FFF75EF90320CF49086008E0AA
:1014F00037200A230246B4210090CC480088FFF729
:10150000A3F8C8480068032811D1C54800683C28E2
:101510000DDC4FF6F070FF2306227621009020208C
:10152000FFF740F90420C049086009E09EE0372039
:10153000602302460A210090BC480088FFF784F827
:10154000B8480068042810D1B54800683C280CDC75
:101550004FF6F070FF230622762100900846FFF731
:1015600021F90520B049086008E0372060230246D1
:1015700019460090AD480088FFF766F8A948006852
:10158000052810D1A64800683C280CDC4FF6F07006
:10159000FF23062276210090CA20FFF703F90620D8
:1015A000A149086008E0372060230246B42100907A
:1015B0009E480088FFF748F89A480068062810D12E
:1015C000974800683C280CDC4FF6F070FF23062299
:1015D000CC2100902020FFF7E5F807209249086011
:1015E00008E03720B62302460A2100908F48008881
:1015F000FFF72AF88B480068072810D18848006850
:101600003C280CDC4FF6F070FF230622CC21009022
:101610007620FFF7C7F808208349086008E03720E4
:10162000B62302466021009080480088FFF70CF83E
:101630007C480068082810D1794800683C280CDCF8
:101640004FF6F070FF230622CC210090CA20FFF74E
:10165000A9F809207449086008E03720B62302463B
:10166000B421009071480088FEF7EEFF6B480088B7
:1016700020F001006949088008BD10B56C48006879
:1016800030B36B480068082822D86A48806800F4A4
:1016900080606849886004465CB965480078401EEF
:1016A000002101FA00F064490968084362490860B2
:1016B0000AE05F480078401E012101FA00F05E490F
:1016C000096808435C4908600A20FFF7E3FA00BF95
:1016D00057480068401C56490860084600680B28B7
:1016E00004D3002008600120544908704FF40060C2
:1016F0005349086010BD08B55248FFF7CBFA4FF4C4
:10170000A0700023F022194600901846FEF79CFFB7
:1017100008BD38B504460A2C0ADA00204FF6FF73DC
:1017200030224FF470610090D820FEF7C8FFF1E03E
:10173000002C0ADA00204FF6FF7330224FF470615C
:101740000090D820FEF7BBFFE4E00A2C0CDB142C41
:101750000ADA00204FF6FF7331224FF470610090D7
:10176000D820FEF7ACFFD5E0142C0CDB1E2C0ADAD7
:1017700000204FF6FF7332224FF470610090D820A2
:10178000FEF79DFFC6E01E2C0CDB282C0ADA002099
:101790004FF6FF7333224FF470610090D820FEF7AC
:1017A0008EFFB7E0282C0CDB322C0ADA00204FF633
:1017B000FF7334224FF470610090D820FEF77FFF52
:1017C000A8E0322C0CDB3C2C0ADA00204FF6FF7329
:1017D00035224FF470610090D820FEF770FF99E039
:1017E0003C2C0CDB462C0ADA00204FF6FF73362225
:1017F0004FF470610090D820FEF761FF8AE0462C1C
:1018000022DB502C20DA00204FF6FF7337224FF4F2
:1018100070610090D820FEF752FF7BE01008004076
:1018200070020020580000205000002028000020F6
:1018300020000020001001402C0000202400002087
:101840001404014040420F00502C0CDB5A2C0ADAE1
:1018500000204FF6FF7338224FF470610090D820BB
:10186000FEF72DFF56E05A2C0CDB642C0ADA002020
:101870004FF6FF7339224FF470610090D820FEF7C5
:101880001EFF47E0642C16DB6E2C14DA00204FF6A6
:10189000FF7331224FF470610090D020FEF70FFFEC
:1018A00000204FF6FF7330224FF470610090D82073
:1018B000FEF705FF2EE06E2C16DB782C14DA0020E4
:1018C0004FF6FF7331224FF470610090D020FEF785
:1018D000F6FE00204FF6FF7331224FF47061009046
:1018E000D820FEF7ECFE15E0782C13DB00204FF635
:1018F000FF7331224FF470610090D020FEF7DFFEBD
:1019000000204FF6FF7332224FF470610090D82010
:10191000FEF7D5FE0020FE4908801AE00A2094FB5D
:10192000F0F100FB1140FA49098888420CD10020EF
:101930000090F74800783030C2B24FF6FF734FF492
:101940007061E020FEF7BBFEF1480088401CF049C2
:101950000880EF4800880A28E0DB38BD38B5002051
:10196000EC490860EC49088016E0FF20EB49EA4B9F
:1019700000901B88CA5CE8490988102303EBC10169
:1019800088B24FF6FF734FF49471FEF798FEE24869
:101990000088401CE0490880DF4800881028E4DB0C
:1019A0000020DB490880A9E00020DD49D84B0090E9
:1019B0001B88CA5CD6490988902303EBC10188B211
:1019C0004FF6F0734FF48071FEF779FE0020D54991
:1019D000CF4B00901B88CA5CCD490988902303EB4C
:1019E000C10188B24FF6F0734FF48871FEF767FEBD
:1019F0000020CD49C64B00901B88CA5CC4490988A9
:101A0000902303EBC10188B24FF6FF734FF490713E
:101A1000FEF755FE4FF47040C449BD4B00901B8843
:101A2000CA5CBB490988102303EBC10188B24FF699
:101A3000FF734FF48871FEF742FE4FF47040BC49CB
:101A4000B34B00901B88CA5CB1490988102303EB93
:101A5000C10188B24FF6FF734FF48071FEF72FFE7D
:101A60000020B449AA4B00901B88CA5CA849098889
:101A7000102303EBC10188B24FF6FF73F021FEF78C
:101A80001EFE0020AC49A24B00901B88CA5CA049F6
:101A90000988102303EBC10188B24FF6F073E021EF
:101AA000FEF70DFE0020A549994B00901B88CA5CEB
:101AB00097490988102303EBC10188B24FF6F073F0
:101AC000D021FEF7FCFD40F60F709D49904B009031
:101AD0001B88CA5C8E490988082303EBC10188B2C0
:101AE0004FF6FF73B021FEF7EAFD43F69820FFF7AB
:101AF000D1F887480088401C8549088084480088C0
:101B00000C28FFF651AF0020834908800DE0824980
:101B10000988083188B24FF47F42C821FEF76CFD76
:101B20007D480088401C7C4908807B480088E0286C
:101B3000EDDB0020784908802DE0002081490880F5
:101B400020E00020744B00901B88C3EB03137E4CF5
:101B500004EB43037B4C24881A5D6F4B1B88A02445
:101B6000A4EB031399B2774B1B88002404EBC30347
:101B700098B240F6FF73FEF7A2FD72480088401C41
:101B8000704908806F4800881E28DADB62480088A8
:101B9000401C61490880604800880C28CDDB00208B
:101BA0004FF2F0030246E02100909020FEF7FAFD8C
:101BB00000204FF2F0030122E0210090A020FEF768
:101BC000F1FD00204FF2F0030222E0210090B0204E
:101BD000FEF7E8FD00204FF2F0030322D021009031
:101BE0009020FEF7DFFD00204FF2F0030422D02109
:101BF0000090A020FEF7D6FD00204FF2F003052252
:101C0000D0210090B020FEF7CDFD5048FFF742F8FC
:101C100038BD08B500203E49088028E000204C4926
:101C20003B4B00901B88CA5C39490988A02303EB11
:101C3000C10188B24FF47F434FF47061FEF73FFD5E
:101C400000204449324B00901B88CA5C3049098807
:101C5000A02303EBC10188B24FF47F434FF47261BC
:101C6000FEF72DFD2A480088401C29490880284895
:101C700000880628D2DB42F21070FFF70BF83720FD
:101C80000A2302461946009033480088FEF7DCFC20
:101C900037200A230246602100902F480088FEF773
:101CA000D3FC37200A230246B42100902A4800883A
:101CB000FEF7CAFC3720602302460A21009026481E
:101CC0000088FEF7C1FC37206023024619460090C9
:101CD00021480088FEF7B8FC372060230246B42173
:101CE00000901D480088FEF7AFFC3720B62302465F
:101CF0000A21009018480088FEF7A6FC3720B6237A
:101D000002466021009014480088FEF79DFC25E003
:101D10003400002068020020360000205C00002013
:101D200078000020840000206C000020900000203B
:101D30009C000020A8000020B4000020C00000206B
:101D4000CC00002038000020FF000020A086010009
:101D5000D8000020EC000020280000203720B62307
:101D60000246B4210090F8480088FEF76DFC42F26C
:101D70001070FEF78FFF0020FF2306224FF48C71B6
:101D800000900A20FEF70EFD0020F049088013E0C5
:101D90000020EE4900900988D02202EBC10188B2F0
:101DA0004FF6FF7330224FF47061FEF788FCE7486E
:101DB0000088401CE5490880E44800880328E7DBE8
:101DC00000204FF6FF7330224FF472610090D8204C
:101DD000FEF775FC00204FF6FF7336224FF4726158
:101DE0000090D020FEF76BFCD948FEF753FF41F678
:101DF0001F4141F28730FFF75DF841F61F4142F283
:101E00000F70FFF77EF808BD08B500BF00BF00BF28
:101E100000BF00BFFEF744FBFEF7EAFEFEF7C4FE7C
:101E2000FEF7B0FE0520FEF7C0FFFEF739FFFEF714
:101E30007BFFFEF7FCFFFFF720FCFFF75CFCFFF7E2
:101E40008DFDC448006840F02000C2490860C248C7
:101E5000006840F02000C0490860FDE3FEF7D8F9B3
:101E6000092190FBF1F201FB1200BC490860BC485B
:101E7000006879280ED1BB48007801280AD1FFF705
:101E80003AFCFEF7DBFDFFF736FCFFF7C2FE002051
:101E9000B4490870B248006869284BD1B14800784D
:101EA000012847D10020AF4908700120AE490860E1
:101EB00008460068AD490968884217D14FF0FF30E5
:101EC000AA490860AA480068401CA94908604FF662
:101ED000F0704FF470430622202100900846FEF770
:101EE00061FCA3480068FFF714FC36E09E480068D8
:101EF0009E490968884230D09B48006800282CDD44
:101F00009A480068401C40B398480068002824DDC7
:101F10006FF001009549086008460068801CE0B930
:101F200093480068401E9249086008460068FFF721
:101F3000F0FB12E08A480068F0280ED1894800784A
:101F400058B937200A230246194600907E48008877
:101F5000FEF77AFB002083490870814800687228E8
:101F60004BD180480078012847D100207D49087076
:101F700002207D490860084600687C49096888425B
:101F800017D14FF0FF307949086079480068401C4C
:101F9000774908604FF6F0704FF470430622202115
:101FA00000907620FEF7FEFB71480068FFF7B1FB5A
:101FB00038E06D4800686D490968884232D06A4847
:101FC000006800282EDD69480068401C50B367484F
:101FD0000068002826DD6FF00100644908600846AB
:101FE0000068801CF0B962480068401E60490860C3
:101FF00008460068FFF78DFB14E059480068F02898
:1020000010D15848007868B937200A230246602169
:1020100000904D480088FEF717FB002051490870DA
:10202000514908604E4800687A284BD14D480078E5
:10203000012847D100204B49087003204A49086015
:102040000846006849490968884217D14FF0FF30B7
:102050004649086046480068401C454908604FF6FC
:10206000F0704FF47043062220210090CA20FEF742
:1020700099FB3F480068FFF74CFB38E03A4800689E
:102080003A490968884232D03748006800282EDD76
:1020900036480068401C50B334480068002826DDEC
:1020A0006FF001003149086008460068801CF0B9F3
:1020B0002F480068401E2E49086008460068FFF758
:1020C00028FB14E026480068F02810D12548007845
:1020D00068B937200A230246B42100901A480088C4
:1020E000FEF7B2FA00201F4908701F4908601C481B
:1020F00000686B285ED11B48007801285AD1002067
:1021000018490870042018490860084600681749F3
:10211000096888422ED14FF0FF30144908601448F6
:102120000068401C124908604FF6F0704FF470438D
:102130000622762100902020FEF734FB0C48006830
:10214000FFF7E7FA4BE000002800002034000020F1
:1021500080969800100C0140101801405800002093
:102160002C000020240000205400002050000020FB
:1021700074020020FE480068FE49096888422ED09B
:10218000FB48006800282ADDFA480068401C30B38C
:10219000F8480068002822DD6FF00100F54908606A
:1021A000F5480068401EF449086008460068FFF7DB
:1021B000B0FA14E0F1480068F02810D1F048007837
:1021C00068B93720602302460A210090ED48008854
:1021D000FEF73AFA0020EA490870E5490860E74846
:1021E0000068732847D1E6480078012843D10020D1
:1021F000E34908700520DE49086008460068DD49AB
:102200000968884217D14FF0FF30DA490860DA4890
:102210000068401CD84908604FF6F0704FF47043D6
:102220000622762100900846FEF7BCFAD2480068E4
:10223000FFF76FFA34E0CE480068CE49096888425B
:102240002ED0CB48006800282ADDCA480068401C10
:1022500030B3C8480068002822DD6FF00100C5498E
:102260000860C5480068401EC34908600846006809
:10227000FFF74FFA14E0C1480068F02810D1C048B9
:10228000007868B937206023024619460090BD489F
:102290000088FEF7D9F90020B9490870B4490860F0
:1022A000B6480068742847D1B5480078012843D162
:1022B0000020B34908700620AD4908600846006850
:1022C000AC490968884217D14FF0FF30A94908602E
:1022D000A9480068401CA84908604FF6F0704FF408
:1022E0007043062276210090CA20FEF75BFAA248CE
:1022F0000068FFF70EFA34E09D4800689D490968C0
:1023000088422ED09A48006800282ADD9948006843
:10231000401C30B397480068002822DD6FF00100B0
:102320009449086094480068401E93490860084634
:102330000068FFF7EEF914E090480068F02810D12B
:102340008F48007868B9372060230246B421009096
:102350008C480088FEF778F9002089490870844984
:102360000860864800686C2847D1854800780128B5
:1023700043D100208249087007207D490860084643
:1023800000687C490968884217D14FF0FF307949CD
:10239000086079480068401C774908604FF6F07083
:1023A0004FF470430622CC2100902020FEF7FAF96A
:1023B00071480068FFF7ADF934E06D4800686D4979
:1023C000096888422ED06A48006800282ADD6948DA
:1023D0000068401C30B367480068002822DD6FF0B9
:1023E00001006449086064480068401E6249086052
:1023F00008460068FFF78DF914E060480068F0288F
:1024000010D15F48007868B93720B62302460A2108
:1024100000905C480088FEF717F9002058490870C2
:102420005349086055480068752847D154480078DA
:10243000012843D100205249087008204C49086007
:10244000084600684B490968884217D14FF0FF30B1
:102450004849086048480068401C474908604FF6F2
:10246000F0704FF470430622CC2100907620FEF7E6
:1024700099F941480068FFF74CF934E03C4800689E
:102480003C49096888422ED03948006800282ADD76
:1024900038480068401C30B336480068002822DD08
:1024A0006FF001003349086033480068401E32492C
:1024B000086008460068FFF72CF914E02F48006810
:1024C000F02810D12E48007868B93720B62302468C
:1024D000602100902B480088FEF7B6F800202849BC
:1024E000087023490860254800687D2854D1244895
:1024F0000078012850D100202149087009201C498A
:102500000860084600681B490968884217D14FF0E7
:10251000FF301849086018480068401C16490860D8
:102520004FF6F0704FF470430622CC210090CA2081
:10253000FEF738F910480068FFF7EBF841E00C4867
:1025400000680C49096888423BD0094800680028A7
:1025500037DD08480068401C98B30648006800282A
:102560002FDD6FF0010003490860034800680BE0AD
:102570005400002050000020740200202C00002095
:102580002400002028000020401E3B490860084627
:102590000068FFF7BEF814E038480068F02810D152
:1025A0003748007868B93720B6230246B421009036
:1025B00034480088FEF748F8002031490870324955
:1025C000086032480068401C60B93148006840F03B
:1025D00020002F4908602F48006840F020002D4956
:1025E00008602BE02848006828490968884210D014
:1025F0002548006800280CDD24480068401C40B1D4
:102600002448001D006840F020002249091D086090
:1026100014E01D48006888B91C480068401C68B177
:102620001B48001F006840F020001949091F08607E
:102630001848006840F02000164908600E480068FD
:10264000002802DA00200C49086013480068401E88
:1026500011490860084600E00BE0006848B944F6FC
:102660002060086000200D4908600D49086003499A
:102670000860FFF7F3BB0000740200202C0000206C
:1026800024000020280000205400002050000020DA
:1026900014180140100C0140180000201C000020FC
:1026A00020000020704700BFFEE700BFFEE700BF2C
:1026B000FEE700BFFEE770477047704705480078A7
:1026C000401C0449087004480078401C0249087006
:1026D0007047000025000020260000200B4910B59F
:1026E000A1F17C020A4CC2E93712372106E000EB67
:1026F000104342F82130074B00FB03400B1EA1F1B1
:102700000101F4DC10BD0120E8E70000F402002024
:10271000E119D666CD0D01007047704770477546C8
:1027200000F028F8AE4605006946534620F0070041
:10273000854618B020B5FDF783FEBDE820404FF078
:1027400000064FF000074FF000084FF0000B21F09B
:102750000701AC46ACE8C009ACE8C009ACE8C00968
:10276000ACE8C0098D4670470446AFF300802046B0
:10277000FDF747FD004870475C03002070470000EC
:1027800001491820ABBEFEE7260002000000000051
:102790000000000000000000000000000000000039
:1027A00000001FCC000C000000000000000008002A
:1027B000300060000800300060000000022003FCD0
:1027C0001E20022003FC1E200220000000000E1824
:1027D00011043FFF10840C78000000000F001084EB
:1027E0000F3800C0077818840078000000780F8444
:1027F00010C411240E9800E400840008080068004A
:102800007000000000000000000000000000000058
:10281000000007E0181820044002000000004002F9
:102820002004181807E000000000000002400240E9
:1028300001800FF001800240024000000080008013
:1028400000800FF800800080008000000001000D73
:10285000000E0000000000000000000000000080EA
:102860000080008000800080008000800000000C5C
:10287000000C000000000000000000000000000646
:10288000001800600180060018002000000007F01A
:10289000080810041004080807F0000000000804ED
:1028A00008041FFC000400040000000000000E0CDF
:1028B00010141024104411840E0C000000000C1899
:1028C00010041104110412880C700000000000E0D4
:1028D0000320042408241FFC0024000000001F988B
:1028E000108411041104108810700000000007F01B
:1028F00008881104110418880070000000001C00F2
:10290000100010FC13001C001000000000000E3826
:1029100011441084108411440E3800000000070098
:10292000088C10441044088807F0000000000000E4
:102930000000030C030C0000000000000000000079
:1029400000010106000000000000000000000080FF
:102950000140022004100808100400000220022098
:1029600002200220022002200220000000001004A9
:1029700008080410022001400080000000000E0042
:102980001200100C106C10800F00000003E00C18F7
:1029900013E4142417C4082807D000000004003CE6
:1029A00003C41C40074000E4001C000410041FFC8A
:1029B0001104110411040E880070000003E00C18CB
:1029C00010041004100410081C10000010041FFC58
:1029D000100410041004080807F0000010041FFC85
:1029E0001104110417C410040818000010041FFC7F
:1029F0001104110017C010000800000003E00C18BB
:102A00001004100410441C780040000010041FFC47
:102A100010840080008010841FFC1004000010044B
:102A200010041FFC1004100400000000000300014B
:102A3000100110011FFE10001000000010041FFC08
:102A4000110403801464181C1004000010041FFCFF
:102A50001004000400040004000C000010041FFC1B
:102A60001F0000FC1F001FFC1004000010041FFCCE
:102A70000C04030000E010181FFC100007F0080809
:102A8000100410041004080807F0000010041FFCD4
:102A900010841080108010800F00000007F00818CC
:102AA00010241024101C080A07F2000010041FFC58
:102AB0001104110011C011300E0C000400000E1C96
:102AC00011041084108410441C38000018001000F9
:102AD00010041FFC100410001800000010001FF864
:102AE00010040004000410041FF8100010001E0061
:102AF00011E0001C007013801C0010001FC0103C6F
:102B000000E01F0000E0103C1FC000001004180C83
:102B1000163401C001C01634180C100410001C003B
:102B2000130400FC13041C00100000000804101C17
:102B30001064108413041C0410180000000000002E
:102B400000007FFE40024002400200000000300012
:102B50000C0003800060001C000300000000400225
:102B6000400240027FFE0000000000000000000064
:102B70002000400040004000200000000001000153
:102B800000010001000100010001000100004000FF
:102B9000400020000000000000000000000000983D
:102BA000012401440144014400FC000410001FFC06
:102BB000008801040104008800700000000000701B
:102BC0000088010401040104008800000000007076
:102BD00000880104010411081FFC0004000000F833
:102BE000014401440144014400C800000000010404
:102BF00001040FFC1104110411001800000000D69C
:102C000001290129012901C90106000010041FFC46
:102C1000008401000100010400FC00040000010424
:102C2000190419FC00040004000000000000000367
:102C300000010101190119FE0000000010041FFC31
:102C40000024004001B4010C010400000000100445
:102C500010041FFC0004000400000000010401FC3B
:102C60000104010001FC0104010000FC010401FC5D
:102C7000008401000100010400FC0004000000F8D1
:102C8000010401040104010400F80000010101FF36
:102C9000008501040104008800700000000000703D
:102CA000008801040104010501FF00010104010481
:102CB00001FC00840104010001800000000000CC40
:102CC00001240124012401240198000000000100D6
:102CD000010007F80104010400000000010001F8F0
:102CE000000400040004010801FC0004010001804C
:102CF0000170000C001001600180010001F0010C66
:102D0000003001C00030010C01F00100000001049E
:102D1000018C00740170018C01040000010101812B
:102D20000171000E001801600180010000000184A3
:102D3000010C013401440184010C0000000000007A
:102D40000000000001003EFC4002400200000000C4
:102D500000000000FFFF0000000000000000400233
:102D600040023EFC01000000000000000000600086
:102D70008000800040004000200020000000008013
:102D8000209021E2FB46274C2D88052F062F208816
:102D9000248CFDCE274220200020000012001EFEC1
:102DA00072A81EFE1200020000007B7E2AAA2AAA38
:102DB0002AAA2EAA00020002000E00000000000055
:102DC00020902090FFF02494249407FF07FF249480
:102DD0002494FFF0209020900000000000000000EC
:102DE00000201E4202447A4C4A484BF04BF04A48BD
:102DF0007A4C024403C20040000000000401186243
:102E00003496E7F8349814F000100000003C1FA03E
:102E10002AA0CAFF0AA00FA0003C0000040118620B
:102E20003496E7F8349814F0001006100C301C604B
:102E3000F6FE13A2132216221C3E000000200060A2
:102E400018E03D603FE03FE01FE007E007E007E0FB
:102E500007E007E003C00380022001D0000000006B
:102E60000000000000000000000000000000000062
:102E70000000000000000000000000000000000052
:102E80000000000000000000000000000000000042
:102E90000000000000000000000000000000000032
:1039F0000000000000000000000000000000FFFFC9
:103A0000000F00F0FF000000283A0008000000202E
:103A1000780200006C010008D83B00087802002002
:103A200048070000C80100081184A24A04400901A7
:103A300002030406070809E3204E13F0FF0230FFDB
:103A40001010574841434B2D612D4D6F6C6521215E
:103A500021100C42593A2047726F75704232580C4F
:103A600031313535313235393233200C163638376D
:103A70003520381F205052455353202B20746F207F
:103A80002053544152542047414D45204E616D65AD
:103A90003A200111100C436169204C6F6E67687504
:103AA00061100C4E67204B616D204D696E674013AD
:103AB000494E535452554354494F4E5353636F72BA
:103AC000653A280D30313233343536373839546958
:103AD00044394F181E4F564552213030302A205954
:103AE0006F752077696C6C207365652061203320C9
:103AF00062790516677269642018102A2048697473
:103B0000206173206D616E79206DC72A730E1A795A
:103B100033180B63616E2A2041646420311D1E72CC
:103B20006B2069663D292218082069732068697432
:103B30003C0B114E6F1B1F6D69737365641E19B2C8
:103B40009B75733E1D6E6F7468C5593C28154561A1
:103B5000636820726F756E64206C61737473206685
:103B60006F722D6C696E2E1E39526D73686F771DE2
:103B70002D7365632EB44A4DA818117265207261C9
:103B80006E646F6D6C7920617070651129781B4FC0
:103B90006E10194A293E380C706F707320757020B2
:103BA0007065723E193C280E61782E73636F7265E2
:103BB0003A20363020A5690F123018092D2D3E20ED
:103BC00050726573B62E2D3920746FAB3D2074682A
:083BD000654C022373B23600BC
:0400000508000425C6
:00000001FF
