:020000040800F2
:1000000078060020AD030008ED0E0008EF0E000892
:10001000F30E0008F70E0008FB0E000800000000B9
:10002000000000000000000000000000FF0E0008BB
:10003000010F000800000000030F0008050F000872
:10004000C7030008C7030008C7030008C703000868
:10005000C7030008C7030008C7030008C703000858
:10006000C7030008C7030008C7030008C703000848
:10007000C7030008C7030008C7030008C703000838
:10008000C7030008C7030008C7030008C703000828
:10009000C7030008C7030008C7030008C703000818
:1000A000C7030008C7030008C7030008C703000808
:1000B000C7030008C7030008C7030008C7030008F8
:1000C000C7030008C7030008C7030008C7030008E8
:1000D000C7030008C7030008C7030008C7030008D8
:1000E000C7030008C7030008C7030008C7030008C8
:1000F000C7030008C7030008C7030008C7030008B8
:10010000C7030008C7030008C7030008C7030008A7
:10011000C7030008C7030008C7030008C703000897
:10012000C7030008C7030008C7030008C703000887
:1001300000F002F800F03AF80AA090E8000C8244BF
:100140008344AAF10107DA4501D100F02FF8AFF29C
:10015000090EBAE80F0013F0010F18BFFB1A43F0A5
:1001600001031847A8150000C8150000103A24BF65
:1001700078C878C1FAD8520724BF30C830C144BF0C
:1001800004680C607047000000230024002500264E
:10019000103A28BF78C1FBD8520728BF30C148BFEA
:1001A0000B6070471FB51FBD10B510BD00F03FFFBD
:1001B0001146FFF7F7FF00F0A6FE00F05DFF03B465
:1001C000FFF7F2FF03BC00F061FF00000CB5002058
:1001D000019000906C48006840F480306A490860E3
:1001E00000BF6948006800F4003000900198401C8E
:1001F0000190009818B90198B0F5A06FF1D162484C
:10020000006800F4003010B10120009001E00020EF
:1002100000900098012843D15C48006840F010002D
:100220005A4908600846006820F003000860084644
:10023000006840F002000860534840685249486036
:100240000846406848600846406840F4806048605E
:100250000846406820F47C1048600846406840F436
:10026000E81048600846006840F08070086000BFF1
:100270004548006800F000700028F9D04248406806
:1002800020F00300404948600846406840F0020002
:10029000486000BF3C48406800F00C000828F9D1D5
:1002A0000CBD10B5FFF792FF10BD10B536480068C1
:1002B00040F001003449086008464068344908406D
:1002C0003149486008460068324908402E490860B4
:1002D0000846006820F4802008600846406820F442
:1002E000FE0048604FF41F008860FFF7DAFF4FF010
:1002F00000602949086010BD10B5002100200022CF
:10030000214B5B6803F00C0121B1042906D00829B8
:1003100028D107E0214B224C236027E01F4B204CC3
:10032000236023E0184B5B6803F47010164B5B6886
:1003300003F48032022303EB904022B9194B43436C
:10034000174C23600DE0104B5B6803F4003323B1BE
:10035000144B4343124C236003E0104B4343104CB7
:10036000236003E00D4B0E4C236000BF00BF064B23
:100370005B68C3F303130C4CE15C094B1B68CB4077
:10038000074C236010BD0000001002400020024016
:100390000000FFF8FFFFF6FE08ED00E000127A0013
:1003A0000000002000093D000400002009488047AB
:1003B00009480047FEE7FEE7FEE7FEE7FEE7FEE747
:1003C000FEE7FEE7FEE7FEE704480549054A064B5F
:1003D00070470000AB0200083101000878000020DF
:1003E000780600207802002078020020002100E03A
:1003F000491C8142FCD37047FD4908807047FC4985
:10040000891C0880704700B50120FFF7F5FF112017
:10041000FFF7F2FF3A20FFF7EFFF5520FFF7EFFF5E
:100420002920FFF7E9FF3620FFF7E6FFCA20FFF794
:10043000E6FF00BD10B5EF48406940F48070ED491B
:1004400048610846806940F0080088610846806974
:1004500040F0200088610846806940F040008861D3
:100460000846806940F480708861E348006820F0A5
:100470000F00E14908600846006840F0030008608A
:10048000DE480068DE490840DC490860084600682C
:10049000DC490843D9490860081F006800F0FF20C4
:1004A000091F08600846006840F0BB100860D64885
:1004B00000680020D44908600846006840F0BB305E
:1004C0000860081F006820F07040091F0860084697
:1004D000006840F030400860CC48406820F470204C
:1004E000CA4948600846406840F4302048600846E1
:1004F000006820F00F0008600846006840F00B001C
:10050000086000204FF020418861C861C049086040
:100510004FF02040806940F480504FF020418861C6
:100520000846806940F4804088610846806940F050
:10053000100088610846C069C8610846C06940F07B
:100540000100C8610846C06940F47060C861B048E5
:100550000068C1F81C01AE480068C1F81C010846DB
:10056000D0F81C0140F44070C1F81C0108468069B5
:1005700040F001008861FFF746FF9F480C3000689B
:1005800040F001009C490C310860A248FFF72EFFA3
:1005900010BD10B503460C462A20FFF72DFF181298
:1005A000FFF72DFFD8B2FFF72AFF0120FFF727FF43
:1005B0003F20FFF724FF2B20FFF71EFF2012FFF73D
:1005C0001EFFE0B2FFF71BFF0120FFF718FFDF203F
:1005D000FFF715FF2C20FFF70FFF1046FFF70FFF67
:1005E00010BDF0B507460C46059D00262A20FFF7F2
:1005F00003FF2012FFF703FFE0B2FFF700FF11191E
:10060000491EC1F30F20FFF7FAFE1119491EC8B2A7
:10061000FFF7F5FE2B20FFF7EFFE1812FFF7EFFEB6
:10062000D8B2FFF7ECFEE918491EC1F30F20FFF71F
:10063000E6FEE918491EC8B2FFF7E1FE2C20FFF7DD
:10064000DBFE00BF03E03846FFF7D9FE761C02FB55
:1006500005F0B042F7D8F0BD0FB583B006980A2870
:100660007CD2DFE800F0055A7CD9FDFCFBFAF9F8F2
:100670000A2000900598823080B2029004980A30D7
:1006800080B2019037220146DDE90230FFF7A9FF71
:100690003720009005984B3080B20290049841308A
:1006A00080B201900A220146DDE90230FFF799FF8E
:1006B0003720009005980A3080B2029004984130AB
:1006C00080B201900A220146DDE90230FFF789FF7E
:1006D0000A20009004980A3080B202903722014626
:1006E000059B0398FFF77DFF3720009005980A309F
:1006F00080B203460A220290DDE90301FFF771FF91
:100700003720009005984B3080B203460A220290B1
:10071000DDE90301FFF765FF09E337200090059845
:100720004B3080B202900498413080B201900A228E
:100730000146DDE90230FFF754FF372000900598AD
:100740000A3080B202900498413080B201900A22AF
:100750000146DDE90230FFF744FFE8E27AE20A20D1
:1007600000900598823080B2029004980A3080B2DE
:10077000019037220146DDE90230FFF732FF3720D2
:10078000009005984B3080B202900498413080B2BE
:1007900001900A220146DDE90230FFF722FF0A201C
:1007A000009004980A3080B2029037220146059BDF
:1007B0000398FFF716FF3720009005980A3080B2A3
:1007C00003460A220290DDE90301FFF70AFF0A202F
:1007D00000900598413080B2029004980A3080B2AF
:1007E000019037220146DDE90230FFF7FAFE9EE272
:1007F000FE07006C00100240000C01400414014090
:1008000000F0FF00BB0B00BB0418014000200140BA
:100810001C0100A0E09304000A200090059882309B
:1008200080B2029004980A3080B2019037220146CB
:10083000DDE90230FFF7D5FE3720009005984B30F8
:1008400080B202900498413080B201900A220146A1
:10085000DDE9023005E0A4E13EE10CE1B6E06CE048
:100860002EE0FFF7BEFE3720009005980A3080B2D8
:1008700002900498413080B201900A220146DDE9DD
:100880000230FFF7AEFE0A20009004980A3080B2D2
:10089000029037220146059B0398FFF7A2FE0A202B
:1008A00000900598413080B2029004980A3080B2DE
:1008B000019037220146DDE90230FFF792FE36E271
:1008C0003720009005984B3080B202900498413058
:1008D00080B201900A220146DDE90230FFF781FE75
:1008E0003720009005980A3080B202900498413079
:1008F00080B201900A220146DDE90230FFF771FE65
:100900003720009005984B3080B203460A220290AF
:10091000DDE90301FFF765FE0A20009005984130EC
:1009200080B2029004980A3080B2019037220146CA
:10093000DDE90230FFF755FEF9E10A200090059845
:10094000823080B2029004980A3080B2019037223F
:100950000146DDE90230FFF744FE3720009005989C
:100960000A3080B202900498413080B201900A228D
:100970000146DDE90230FFF734FE0A2000900498BA
:100980000A3080B2029037220146059B0398FFF798
:1009900028FE3720009005984B3080B203460A228B
:1009A0000290DDE90301FFF71CFE0A200090059884
:1009B000413080B2029004980A3080B20190372210
:1009C0000146DDE90230FFF70CFEB0E10A2000909D
:1009D0000598823080B2029004980A3080B201906B
:1009E00037220146DDE90230FFF7FBFD372000909A
:1009F00005980A3080B202900498413080B201908C
:100A00000A220146DDE90230FFF7EBFD0A200090E3
:100A100004980A3080B2029037220146059B039861
:100A2000FFF7DFFD3720009005980A3080B20346BB
:100A30000A220290DDE90301FFF7D3FD3720009081
:100A400005984B3080B203460A220290DDE903018B
:100A5000FFF7C7FD0A2000900598413080B2029050
:100A600004980A3080B2019037220146DDE9023055
:100A7000FFF7B7FD5BE10A2000900598823080B255
:100A8000029004980A3080B2019037220146DDE9D5
:100A90000230FFF7A6FD3720009005984B3080B25A
:100AA00002900498413080B201900A220146DDE9AB
:100AB0000230FFF796FD3720009005980A3080B28B
:100AC00002900498413080B201900A220146DDE98B
:100AD0000230FFF786FD2AE10A2000900598823057
:100AE00080B2029004980A3080B201903722014609
:100AF000DDE90230FFF775FD3720009005984B3097
:100B000080B202900498413080B201900A220146DE
:100B1000DDE90230FFF765FD3720009005980A30C7
:100B200080B202900498413080B201900A220146BE
:100B3000DDE90230FFF755FD0A20009004980A30E5
:100B400080B2029037220146059B0398FFF749FDCA
:100B50003720009005980A3080B203460A2202909E
:100B6000DDE90301FFF73DFD3720009005984B308C
:100B700080B203460A220290DDE90301FFF731FD4E
:100B80000A2000900598413080B2029004980A3003
:100B900080B2019037220146DDE90230FFF721FDE6
:100BA000C5E00A2000900598823080B20290049837
:100BB0000A3080B2019037220146DDE90230FFF7AA
:100BC00010FD3720009005984B3080B202900498B9
:100BD000413080B201900A220146DDE90230FFF780
:100BE00000FD3720009005980A3080B202900498EA
:100BF000413080B201900A220146DDE90230FFF760
:100C0000F0FC0A20009004980A3080B2029037224B
:100C10000146059B0398FFF7E4FC372000900598F8
:100C20004B3080B203460A220290DDE90301FFF750
:100C3000D8FC0A2000900598413080B202900498B8
:100C40000A3080B2019037220146DDE90230FFF719
:100C5000C8FC6CE00A2000900598823080B20290B7
:100C600004980A3080B20190372201464FF6FF7097
:100C7000029BFFF7B6FC3720009005984B3080B2FE
:100C800002900498413080B201900A2201464FF64A
:100C9000FF70029BFFF7A5FC3720009005980A30F3
:100CA00080B202900498413080B201900A2201463D
:100CB0004FF6FF70029BFFF794FC0A200090049807
:100CC0000A3080B20290372201464FF6FF70059B32
:100CD000FFF787FC3720009005980A3080B2034662
:100CE0000A2202904FF6FF700499FFF77AFC372032
:100CF000009005984B3080B203460A2202904FF6CE
:100D0000FF700499FFF76DFC0A20009005984130B0
:100D100080B2029004980A3080B2019037220146D6
:100D20004FF6FF70029BFFF75CFC07B000BD00BFF1
:100D300000BFFAE72DE9F04F04460D4616469A46E5
:100D4000DDF8249010224FF0080B202E01DB7F2EBF
:100D500001DDBDE8F08FA6F12000C6B22A20FFF722
:100D60004BFB2012FFF74BFBE0B2FFF748FB0BEB0E
:100D70000401491EC1F30F20FFF741FB0BEB0401F7
:100D8000491EC8B2FFF73BFB2B20FFF735FB2812AB
:100D9000FFF735FBE8B2FFF732FB5119491EC1F3EB
:100DA0000F20FFF72CFB5119491EC8B2FFF727FB94
:100DB0002C20FFF721FB002327E04FF000081DE067
:100DC000002715E0474800EB0610012101EB470121
:100DD000C91A405C40FA08F000F0010018B1504612
:100DE000FFF70DFB02E04846FFF709FB781CC7B28E
:100DF0005F45E7DB08F1010000F0FF0802EBD2716C
:100E0000B8EB610FDCDB581CC3B2D11702EB517198
:100E1000B3EBE10FD1DB00BF9BE72DE9F04F0446B8
:100E20000D4690469A46DDF82490102293462A20DB
:100E3000FFF7E2FA2012FFF7E2FAE0B2FFF7DFFA7B
:100E40000BEB0401491EC1F30F20FFF7D8FA0BEB9F
:100E50000401491EC8B2FFF7D2FA2B20FFF7CCFAE3
:100E60002812FFF7CCFAE8B2FFF7C9FA5119491E68
:100E7000C1F30F20FFF7C3FA5119491EC8B2FFF79B
:100E8000BEFA2C20FFF7B8FA002723E000261AE06C
:100E9000002314E0144800EB4810012101EB43014A
:100EA000C91B405C304100F0010018B15046FFF70B
:100EB000A6FA02E04846FFF7A2FA581CC3B25B4507
:100EC000E8DB701CC6B202EBD271B6EB610FDFDB60
:100ED000781CC7B2D11702EB5171B7EBE10FD5DB2C
:100EE000BDE8F08F9A1000088A160008704700BF0E
:100EF000FEE700BFFEE700BFFEE700BFFEE770476A
:100F000070477047704708B5FFF794FA4FF4A07028
:100F10000023F022194600904FF47840FFF761FB60
:100F20004FF4784040F2EE735422A4210090462002
:100F3000FFF700FF4FF4784040F2EE736522A421E2
:100F400000904E20FFF7F6FE4FF4784040F2EE732B
:100F50007322A42100905620FFF7ECFE4FF4784056
:100F600040F2EE737422A42100905E20FFF7E2FEAF
:100F70004FF4784040F2EE732C22A42100906620BA
:100F8000FFF7D8FE4FF4784040F2EE735022A421D0
:100F900000906E20FFF7CEFE4FF4784040F2EE73E3
:100FA0007222A42100907620FFF7C4FE4FF478400F
:100FB00040F2EE736F22A42100907E20FFF7BAFE6C
:100FC0004FF4784040F2EE736722A421009086200F
:100FD000FFF7B0FE4FF4784040F2EE737222A42186
:100FE00000908E20FFF7A6FE4FF4784040F2EE739B
:100FF0006122A42100909620FFF79CFE4FF47840D8
:1010000040F2EE736D22A42100909E20FFF792FE25
:101010004FF4784040F2EE732E22A4210090A620D7
:10102000FFF788FE00BFFEE77047704770477546C0
:1010300000F028F8AE4605006946534620F0070048
:10104000854618B020B5FFF7BFF9BDE820404FF046
:1010500000064FF000074FF000084FF0000B21F0A2
:101060000701AC46ACE8C009ACE8C009ACE8C0096F
:10107000ACE8C0098D4670470446AFF300802046B7
:10108000FFF79DF800487047140000200149182020
:10109000ABBEFEE726000200704700000000000023
:1010A0000000000000000000000000000000000040
:1010B0001FCC000C00000000000000000800300001
:1010C00060000800300060000000022003FC1E20C9
:1010D000022003FC1E200220000000000E18110454
:1010E0003FFF10840C78000000000F0010840F38C0
:1010F00000C0077818840078000000780F8410C4BE
:1011000011240E9800E400840008080068007000B4
:1011100000000000000000000000000000000000CF
:1011200007E01818200440020000000040022004DC
:10113000181807E000000000000002400240018093
:101140000FF001800240024000000080008000801B
:101150000FF800800080008000000001000D000EEC
:10116000000000000000000000000000008000807F
:10117000008000800080008000800000000C000CD7
:101180000000000000000000000000000006001841
:1011900000600180060018002000000007F0080829
:1011A00010041004080807F00000000008040804F8
:1011B0001FFC000400040000000000000E0C1014CE
:1011C0001024104411840E0C000000000C181004B0
:1011D0001104110412880C700000000000E00320CC
:1011E000042408241FFC0024000000001F98108421
:1011F00011041104108810700000000007F0088826
:101200001104110418880070000000001C00100078
:1012100010FC13001C001000000000000E381144E8
:101220001084108411440E38000000000700088C60
:1012300010441044088807F000000000000000007F
:10124000030C030C0000000000000000000000017F
:1012500001060000000000000000000000800140C6
:1012600002200410080810040000022002200220BE
:1012700002200220022002200000000010040808C2
:101280000410022001400080000000000E00120047
:10129000100C106C10800F00000003E00C1813E419
:1012A000142417C4082807D000000004003C03C41D
:1012B0001C40074000E4001C000410041FFC110443
:1012C000110411040E880070000003E00C181004D3
:1012D0001004100410081C10000010041FFC10045F
:1012E00010041004080807F0000010041FFC11048B
:1012F000110417C410040818000010041FFC110486
:10130000110017C010000800000003E00C181004C2
:10131000100410441C780040000010041FFC1084CE
:101320000080008010841FFC1004000010041004D2
:101330001FFC100410040000000000030001100155
:1013400010011FFE10001000000010041FFC11040B
:1013500003801464181C1004000010041FFC100407
:10136000000400040004000C000010041FFC1F0017
:1013700000FC1F001FFC1004000010041FFC0C04E4
:10138000030000E010181FFC100007F0080810040C
:1013900010041004080807F0000010041FFC10845B
:1013A0001080108010800F00000007F00818102433
:1013B0001024101C080A07F2000010041FFC11047E
:1013C000110011C011300E0C000400000E1C11049D
:1013D0001084108410441C38000018001000100401
:1013E0001FFC100410001800000010001FF810046B
:1013F0000004000410041FF8100010001E0011E08B
:10140000001C007013801C0010001FC0103C00E086
:101410001F0000E0103C1FC000001004180C163420
:1014200001C001C01634180C100410001C00130475
:1014300000FC13041C00100000000804101C1064C1
:10144000108413041C0410180000000000000000A9
:101450007FFE4002400240020000000030000C000D
:1014600003800060001C00030000000040024002F6
:1014700040027FFE0000000000000000000020008D
:101480004000400040002000000000010001000179
:1014900000010001000100010001000040004000C7
:1014A000200000000000000000000000009801245F
:1014B00001440144014400FC000410001FFC0088AA
:1014C0000104010400880070000000000070008822
:1014D000010401040104008800000000007000887D
:1014E0000104010411081FFC0004000000F801447D
:1014F00001440144014400C800000000010401044B
:101500000FFC1104110411001800000000D601297D
:101510000129012901C90106000010041FFC0084F3
:1015200001000100010400FC000400000104190492
:1015300019FC00040004000000000000000300018A
:101540000101190119FE0000000010041FFC002415
:10155000004001B4010C010400000000100410045C
:101560001FFC0004000400000000010401FC010451
:10157000010001FC0104010000FC010401FC0084E5
:1015800001000100010400FC0004000000F8010457
:1015900001040104010400F80000010101FF0085BD
:1015A0000104010400880070000000000070008841
:1015B00001040104010501FF00010104010401FC13
:1015C00000840104010001800000000000CC01241F
:1015D0000124012401240198000000000100010001
:1015E00007F80104010400000000010001F80004F4
:1015F00000040004010801FC0004010001800170E6
:10160000000C001001600180010001F0010C0030AD
:1016100001C00030010C01F0010000000104018C48
:1016200000740170018C010400000101018101714D
:10163000000E001801600180010000000184010C0F
:10164000013401440184010C00000000000000008E
:10165000000001003EFC40024002000000000000CB
:101660000000FFFF000000000000000040024002F8
:101670003EFC01000000000000000000600080004F
:101680008000400040002000200000000000C0005A
:10169000F03FFC3F0C00A83EA83EAC12AC12AC12CE
:1016A000A812A83EA83E08100018F80BA83AA83ABD
:1016B000AC2AAC2AA82AA822A832F81BF81B0010D2
:1016C00000200420042004200420FC3FFC3F0420D0
:1016D0000420042004200420282C280FF83FFC3F7D
:1016E000A403A426BC24A424A43FA43FA424BC2473
:1016F000BC240020000000000000000000000000EA
:101700000000000000000000000000002C1700088E
:1017100000000020140000006C01000840170008C1
:1017200014000020640600008801000800A24A049A
:101730000000000000000000010203040607080981
:04000005080003AD3F
:00000001FF
